{
  "_format": "hh-sol-artifact-1",
  "contractName": "FunctionsRequest",
  "sourceName": "@chainlink/contracts/src/v0.8/functions/v1_0_0/libraries/FunctionsRequest.sol",
  "abi": [
    {
      "inputs": [],
      "name": "EmptyArgs",
      "type": "error"
    },
    {
      "inputs": [],
      "name": "EmptySecrets",
      "type": "error"
    },
    {
      "inputs": [],
      "name": "EmptySource",
      "type": "error"
    },
    {
      "inputs": [],
      "name": "NoInlineSecrets",
      "type": "error"
    },
    {
      "inputs": [],
      "name": "REQUEST_DATA_VERSION",
      "outputs": [
        {
          "internalType": "uint16",
          "name": "",
          "type": "uint16"
        }
      ],
      "stateMutability": "view",
      "type": "function"
    }
  ],
  "bytecode": "0x60c1610052600b82828239805160001a607314610045577f4e487b7100000000000000000000000000000000000000000000000000000000600052600060045260246000fd5b30600052607381538281f3fe730000000000000000000000000000000000000000301460806040526004361060335760003560e01c80635d641dfc146038575b600080fd5b603e6052565b604051604991906072565b60405180910390f35b600181565b600061ffff82169050919050565b606c816057565b82525050565b6000602082019050608560008301846065565b9291505056fea2646970667358221220b0d0ba426c2678e4160cc498f9fed76d72fc0635d804d1be7a60f4ef7f3d118b64736f6c63430008180033",
  "linkReferences": {},
  "deployedLinkReferences": {}
}